{
	"contracts/Basics-Learning/ControlStructures.sol": {
		"ControlStructure": {
			"abi": [
				{
					"inputs": [
						{
							"internalType": "uint256",
							"name": "_number",
							"type": "uint256"
						}
					],
					"name": "isEvenNumber",
					"outputs": [
						{
							"internalType": "bool",
							"name": "",
							"type": "bool"
						}
					],
					"stateMutability": "view",
					"type": "function"
				}
			],
			"devdoc": {
				"methods": {}
			},
			"evm": {
				"assembly": "    /* \"contracts/Basics-Learning/ControlStructures.sol\":27:403  contract ControlStructure \r... */\n  mstore(0x40, 0x80)\n  callvalue\n    /* \"--CODEGEN--\":8:17   */\n  dup1\n    /* \"--CODEGEN--\":5:7   */\n  iszero\n  tag_1\n  jumpi\n    /* \"--CODEGEN--\":30:31   */\n  0x00\n    /* \"--CODEGEN--\":27:28   */\n  dup1\n    /* \"--CODEGEN--\":20:32   */\n  revert\n    /* \"--CODEGEN--\":5:7   */\ntag_1:\n    /* \"contracts/Basics-Learning/ControlStructures.sol\":27:403  contract ControlStructure \r... */\n  pop\n  dataSize(sub_0)\n  dup1\n  dataOffset(sub_0)\n  0x00\n  codecopy\n  0x00\n  return\nstop\n\nsub_0: assembly {\n        /* \"contracts/Basics-Learning/ControlStructures.sol\":27:403  contract ControlStructure \r... */\n      mstore(0x40, 0x80)\n      callvalue\n        /* \"--CODEGEN--\":8:17   */\n      dup1\n        /* \"--CODEGEN--\":5:7   */\n      iszero\n      tag_1\n      jumpi\n        /* \"--CODEGEN--\":30:31   */\n      0x00\n        /* \"--CODEGEN--\":27:28   */\n      dup1\n        /* \"--CODEGEN--\":20:32   */\n      revert\n        /* \"--CODEGEN--\":5:7   */\n    tag_1:\n        /* \"contracts/Basics-Learning/ControlStructures.sol\":27:403  contract ControlStructure \r... */\n      pop\n      jumpi(tag_2, lt(calldatasize, 0x04))\n      shr(0xe0, calldataload(0x00))\n      dup1\n      0xe5054c69\n      eq\n      tag_3\n      jumpi\n    tag_2:\n      0x00\n      dup1\n      revert\n        /* \"contracts/Basics-Learning/ControlStructures.sol\":182:400  function isEvenNumber(uint _number) public view returns(bool) \r... */\n    tag_3:\n      tag_4\n      0x04\n      dup1\n      calldatasize\n      sub\n        /* \"--CODEGEN--\":13:15   */\n      0x20\n        /* \"--CODEGEN--\":8:11   */\n      dup2\n        /* \"--CODEGEN--\":5:16   */\n      lt\n        /* \"--CODEGEN--\":2:4   */\n      iszero\n      tag_5\n      jumpi\n        /* \"--CODEGEN--\":29:30   */\n      0x00\n        /* \"--CODEGEN--\":26:27   */\n      dup1\n        /* \"--CODEGEN--\":19:31   */\n      revert\n        /* \"--CODEGEN--\":2:4   */\n    tag_5:\n        /* \"contracts/Basics-Learning/ControlStructures.sol\":182:400  function isEvenNumber(uint _number) public view returns(bool) \r... */\n      dup2\n      add\n      swap1\n      dup1\n      dup1\n      calldataload\n      swap1\n      0x20\n      add\n      swap1\n      swap3\n      swap2\n      swap1\n      pop\n      pop\n      pop\n      tag_6\n      jump\t// in\n    tag_4:\n      mload(0x40)\n      dup1\n      dup3\n      iszero\n      iszero\n      iszero\n      iszero\n      dup2\n      mstore\n      0x20\n      add\n      swap2\n      pop\n      pop\n      mload(0x40)\n      dup1\n      swap2\n      sub\n      swap1\n      return\n    tag_6:\n        /* \"contracts/Basics-Learning/ControlStructures.sol\":238:242  bool */\n      0x00\n        /* \"contracts/Basics-Learning/ControlStructures.sol\":279:280  0 */\n      dup1\n        /* \"contracts/Basics-Learning/ControlStructures.sol\":274:275  2 */\n      0x02\n        /* \"contracts/Basics-Learning/ControlStructures.sol\":264:271  _number */\n      dup4\n        /* \"contracts/Basics-Learning/ControlStructures.sol\":264:275  _number % 2 */\n      dup2\n      tag_8\n      jumpi\n      invalid\n    tag_8:\n      mod\n        /* \"contracts/Basics-Learning/ControlStructures.sol\":264:280  _number % 2 == 0 */\n      eq\n        /* \"contracts/Basics-Learning/ControlStructures.sol\":261:393  if(_number % 2 == 0)\r... */\n      iszero\n      tag_9\n      jumpi\n        /* \"contracts/Basics-Learning/ControlStructures.sol\":313:317  true */\n      0x01\n        /* \"contracts/Basics-Learning/ControlStructures.sol\":306:317  return true */\n      swap1\n      pop\n      jump(tag_7)\n        /* \"contracts/Basics-Learning/ControlStructures.sol\":261:393  if(_number % 2 == 0)\r... */\n    tag_9:\n        /* \"contracts/Basics-Learning/ControlStructures.sol\":376:381  false */\n      0x00\n        /* \"contracts/Basics-Learning/ControlStructures.sol\":369:381  return false */\n      swap1\n      pop\n        /* \"contracts/Basics-Learning/ControlStructures.sol\":182:400  function isEvenNumber(uint _number) public view returns(bool) \r... */\n    tag_7:\n      swap2\n      swap1\n      pop\n      jump\t// out\n\n    auxdata: 0xa264697066735822122002b6b7321e92fad39e851d832b91193861aa3483ad1ba15291538b0c2b9aa5a664736f6c63430006010033\n}\n",
				"bytecode": {
					"linkReferences": {},
					"object": "608060405234801561001057600080fd5b5060ca8061001f6000396000f3fe6080604052348015600f57600080fd5b506004361060285760003560e01c8063e5054c6914602d575b600080fd5b605660048036036020811015604157600080fd5b81019080803590602001909291905050506070565b604051808215151515815260200191505060405180910390f35b60008060028381607c57fe5b061415608a5760019050608f565b600090505b91905056fea264697066735822122002b6b7321e92fad39e851d832b91193861aa3483ad1ba15291538b0c2b9aa5a664736f6c63430006010033",
					"opcodes": "PUSH1 0x80 PUSH1 0x40 MSTORE CALLVALUE DUP1 ISZERO PUSH2 0x10 JUMPI PUSH1 0x0 DUP1 REVERT JUMPDEST POP PUSH1 0xCA DUP1 PUSH2 0x1F PUSH1 0x0 CODECOPY PUSH1 0x0 RETURN INVALID PUSH1 0x80 PUSH1 0x40 MSTORE CALLVALUE DUP1 ISZERO PUSH1 0xF JUMPI PUSH1 0x0 DUP1 REVERT JUMPDEST POP PUSH1 0x4 CALLDATASIZE LT PUSH1 0x28 JUMPI PUSH1 0x0 CALLDATALOAD PUSH1 0xE0 SHR DUP1 PUSH4 0xE5054C69 EQ PUSH1 0x2D JUMPI JUMPDEST PUSH1 0x0 DUP1 REVERT JUMPDEST PUSH1 0x56 PUSH1 0x4 DUP1 CALLDATASIZE SUB PUSH1 0x20 DUP2 LT ISZERO PUSH1 0x41 JUMPI PUSH1 0x0 DUP1 REVERT JUMPDEST DUP2 ADD SWAP1 DUP1 DUP1 CALLDATALOAD SWAP1 PUSH1 0x20 ADD SWAP1 SWAP3 SWAP2 SWAP1 POP POP POP PUSH1 0x70 JUMP JUMPDEST PUSH1 0x40 MLOAD DUP1 DUP3 ISZERO ISZERO ISZERO ISZERO DUP2 MSTORE PUSH1 0x20 ADD SWAP2 POP POP PUSH1 0x40 MLOAD DUP1 SWAP2 SUB SWAP1 RETURN JUMPDEST PUSH1 0x0 DUP1 PUSH1 0x2 DUP4 DUP2 PUSH1 0x7C JUMPI INVALID JUMPDEST MOD EQ ISZERO PUSH1 0x8A JUMPI PUSH1 0x1 SWAP1 POP PUSH1 0x8F JUMP JUMPDEST PUSH1 0x0 SWAP1 POP JUMPDEST SWAP2 SWAP1 POP JUMP INVALID LOG2 PUSH5 0x6970667358 0x22 SLT KECCAK256 MUL 0xB6 0xB7 ORIGIN 0x1E SWAP3 STATICCALL 0xD3 SWAP15 DUP6 SAR DUP4 0x2B SWAP2 NOT CODESIZE PUSH2 0xAA34 DUP4 0xAD SHL LOG1 MSTORE SWAP2 MSTORE8 DUP12 0xC 0x2B SWAP11 0xA5 0xA6 PUSH5 0x736F6C6343 STOP MOD ADD STOP CALLER "
				},
				"gasEstimates": {
					"creation": {
						"codeDepositCost": "40400",
						"executionCost": "93",
						"totalCost": "40493"
					},
					"external": {
						"isEvenNumber(uint256)": "352"
					}
				},
				"methodIdentifiers": {
					"isEvenNumber(uint256)": "e5054c69"
				}
			},
			"storageLayout": {
				"storage": [],
				"types": null
			},
			"userdoc": {
				"methods": {}
			}
		}
	}
}